S017000063616C646169615F726F746F6E64692E73726563F0
S3150000000038470020B91C0000911A0000B51C0000FA
S31500000010B51C0000B51C0000B51C0000B51C000096
S31500000020000000000000000000000000B51C0000F9
S31500000030B51C000000000000B51C000031060000E1
S31500000040ED180000000000000000000000000000A5
S31500000050E10F0000590F00006D100000A91000000C
S31500000060000000000000000000000000000000008A
S31500000070000000000000000000000000000000007A
S31500000080000000000000000000000000000000006A
S31500000090000000000000000000000000000000005A
S31500000400FFFFFFFFDFCEFFFFFCFF0F00FFFF0F0028
S31500000410FCFF0F00FFFF0F00FCFF0F00FFFF0F00A8
S31500000420FCFF0F20FFFF0F20FCFF7F40FFFF7F40F8
S31500000430FCFF0D40FFFF0D40FFFFFFFF10B544F22C
S31500000440D004C2F20004237863B940F20003C0F27C
S3150000045000032BB142F2D020C0F2000000E000BF42
S315000004600123237010BDC04640F20003C0F2000312
S3150000047010B54BB144F2D40142F2D020C2F20001D1
S31500000480C0F2000000E000BF10BDC04610B500F08D
S3150000049079FC10BD10B500F095FC10BD70B544F2A6
S315000004A0EC0444F2F006C2F200042378C2F200061D
S315000004B0356882B03BB100F0C3F832352D1A002DF5
S315000004C01EDD02B070BD00F0BBF840F2D07C654482
S315000004D02D1A002DF5DC42F2D413C0F200031A687F
S315000004E09B6801920122DB6940F20121019898473D
S315000004F023785A425341237000F0A2F83060E0E7B7
S3150000050042F2D413C0F200031A689B680192DB69B9
S315000005100022E9E710B582B06B4642F2E01144F2E0
S315000005202C209C1D0023C0F20001C2F20000238093
S3150000053000F098FF50B144F22C20C2F2000001F006
S315000005407BF9C046C046C04602B010BD42F2042147
S3150000055044F22C20C0F20001C2F2000001F066F85D
S315000005600028E8D144F22C20C2F2000000F04EFF31
S3150000057044F2F403C2F200031A78002AFCD00022E7
S3150000058044F22C201A700A212200C2F2000000F068
S3150000059043FFD0E744F2F4030122C2F200031A70CB
S315000005A07047C04644F2F81310B5C2F200031C6847
S315000005B08C4200D90C0044F2F8012200C2F200017C
S315000005C001F07CFC200010BD44F2F8130022C2F2B8
S315000005D000031A607047C04644F2203340F2E83206
S315000005E0C2F200031B68B3FBF2F38022013B520404
S315000005F0934213D24EF210024EF60051C020CEF2B4
S3150000060000025360CEF200010B6A00061B021B0AB1
S3150000061003430B6200239360073313604EF60052C8
S31500000620CEF20002136A1B021B0A13627047C04611
S3150000063044F2FC13C2F200031A6801321A607047D2
S3150000064044F2FC13C2F20003186870474B78012B82
S3150000065005D9022B01D107235380002070470023C0
S315000006601370FAE70020704770B504000D0029B931
S31500000670406801F019FC0020656070BD46683000D6
S3150000068001F00AFD030060600020002BF5D1300068
S3150000069001F00AFC0220F0E770B5040079B1857B11
S315000006A003684D19ADB22900984702280AD04DB10A
S315000006B06268E37B94466344A360A58106E000215B
S315000006C00368984700236360A360A38170BDC0469A
S315000006D0F8B5436804000F00160003B198472000E0
S315000006E0A57F226A0235290023691030984702281F
S315000006F00ED06269E37F94466344A361A58358B92B
S315000007008021002049420F431F70A3695E70F8BD27
S3150000071000236361A361A3830820F8E7F0B54E4682
S31500000720DE4657464546E0B50400894687B0052BA8
S3150000073000D0AAE0481EC0B203280ED90323002029
S315000007409B000343FF2240469043184307B0F0BC8A
S31500000750BB46B246A946A046F0BD1379D5781B0222
S315000007602B435BBA9BB29A46002B00D191E042F232
S31500000770C8134100C0F20003CB5A534500D288E0AB
S31500000780937851781B020B435BBA9AB28023514689
S315000007905B0200925B1A9A4200DD91E042F2D013AE
S315000007A0C0F200031B5C04AE019342F2C413C0F214
S315000007B000031B5C009D337000237370B3804B46AF
S315000007C0B3712B0053449BB29B4603AF3A003100F2
S315000007D02000236875809847002866D13A78002A59
S315000007E058D10135ADB2AB45F0D1019B002B6CD091
S315000007F053462000DD1DED10EDB2A91C226AC9B2D8
S315000008001030FFF749FF002871D14A46A3691A70D4
S31500000810A3695D7000230021A269D218013391708B
S31500000820DAB29542F8D8022340F2000973704B46BB
S315000008300025A14640F2070B1C000CE04A469269CF
S31500000840013594467A886B006344110A19705A7010
S31500000850ACB2544536D24846009B3A00E318738042
S31500000860310003689847019B002BE7D04B467A88F6
S315000008709B69E1080233D2B15A4614400122A240D4
S31500000880585C013502435A54E2E70322FFF720FF82
S315000008905CE7032249462000FFF71AFF0300804663
S315000008A01B068007800F9B0E4AE70422F2E75A4692
S315000008B001201440A0405A5C013582435A54C7E7D0
S315000008C00222E7E7002300203AE7534620005D00B6
S315000008D0EDB2226AA91C1030FFF7DEFE38B94A468F
S315000008E0A3691A70A3695D70002D93D19BE702235B
S315000008F0002025E7F0B54646D6464F46C0B504006B
S315000009000E0084B0052B00D086E05078052954D01F
S31500000910917802AF0902014349BA8BB2D078984662
S31500000920137940F201121B0203435BBA9BB299464C
S315000009303A807980BB80390020002368BE7101AA05
S31500000940984700285DD16B461B799A461A00002B02
S3150000095058D1032339007B7001AA236820009847E9
S315000009602000A77F226A053739002369103098478F
S31500000970022855D06269E37F94466344A361A78346
S31500000980002851D142461E70A369120A5A70424687
S315000009909A704A46A369120ADA704A4600201A710A
S315000009A000239B000343FF2228009043184304B012
S315000009B0E0BCBA46B146A846F0BD93781B02034395
S315000009C0D07812795BBA1202024352BA99B292B245
S315000009D0884691461AB14FF60072914527D102AF6B
S315000009E040F204127B804B463A805A1E93419BB2DA
S315000009F0BB80390020002368BE7101AA98470028F1
S31500000A00A1D0042231002000FFF762FE0500800716
S31500000A102B06800F9B0EC4E70322FFF759FEC6E79D
S31500000A2053466361A361A38302230020B9E703222F
S31500000A300521E8E7F0B54546DE4657464E46E0B5A1
S31500000A4004008846150089B0052B0AD90F2900D164
S31500000A5070E040F201097B20697911B1063B9942A9
S31500000A600BD0032241462000FFF732FE09B0F0BC4E
S31500000A70BB46B246A946A046F0BD2B79EE781B02CE
S31500000A8033435BBA9BB20093002BEAD09842E8D37B
S31500000A904A465B00042A03D1009B07339BB2DB1056
S31500000AA09942DED1AB7869781B020B435BBA9AB2E6
S31500000AB0802300995B0201925B1A9A4200DD98E05E
S31500000AC04B4606AE3370012373704346B371AB1DBC
S31500000AD09B4640F2000A02932B0005AF5546A246FC
S31500000AE05C469B4616E0637821781B020B435BBA93
S31500000AF09BB25046B3803A003100036898470028FD
S31500000B006CD13A78002A6FD10135009BADB2023420
S31500000B10AB4214D0019B5B1973804B46042BE2D188
S31500000B205A46EB080633D35C07222A4013410122BA
S31500000B301340DEE740F2040940F2B0708CE75446F9
S31500000B405D4640F2000A0323039540F2070B554623
S31500000B507370A246029C11E0637821781B020B4356
S31500000B605BBA9BB25046B3803A000368310098479F
S31500000B700135009BADB20234AB420FD0019B5B192D
S31500000B8073804B46042BE7D1039AEB080633D35CFC
S31500000B905A462A40134101221340E3E75446504681
S31500000BA0A57F226A05352900236910309847022857
S31500000BB025D06269E37F94466344A361A58310BB95
S31500000BC0424601991A70A3690A0A5A7099700099E7
S31500000BD0A3690A0A0020DA70197147E70422414620
S31500000BE05046FFF775FD41E741465046FFF770FD59
S31500000BF03CE7022241462000FFF76AFD36E7002364
S31500000C006361A361A383082030E7C046F0B54E4672
S31500000C10DE4657464546E0B50400894687B0072BB1
S31500000C2000D08BE0937850781B02034304AD5BBA87
S31500000C3099B26B8000238B461179D0780902014363
S31500000C4097798846AB8051794B4601223F020F4384
S31500000C502A80AB7129002000236803AA9847002840
S31500000C6055D102AB1A79002A52D143465BBA98464F
S31500000C707FBA9BB29A46BBB20193022329006B70DE
S31500000C8003AA236820009847524602ABDB88290056
S31500000C901340424697431F43012320006B70AF80E9
S31500000CA0236803AA984790BB02AB1F793A007FBB23
S31500000CB0032329006B7003AA2368200098472000AD
S31500000CC0A57F226A07352900236910309847022834
S31500000CD038D06269E37F94466344A361A583002804
S31500000CE033D14A461A705A46A369120A5A705A46AE
S31500000CF09A705246A369120ADA70524601991A711D
S31500000D00A3690A0A5A7199710020002309E0042296
S31500000D1049462000FFF7DCFC060080073306800FFB
S31500000D209B0E9B000343FF2230009043184307B0FD
S31500000D30F0BCBB46B246A946A046F0BD0322FFF76B
S31500000D40C7FCF4E76761A761A78302230020E8E7F1
S31500000D50F8B5077B8C461300097877B100248568BF
S31500000D6004E00134A4B20835BC4206D22E788E4285
S31500000D70F7D162466C68A04702E00122FFF7A8FCA3
S31500000D80F8BDC04644F2002344F20002C2F200035A
S31500000D90C2F200029A6009221A7340F24D62C0F252
S31500000DA000021A6040F26562C0F200025A6040F228
S31500000DB06962C0F200021A6100225A619A61DA6120
S31500000DC01A62704710B50024C0B00021FB2201A8AA
S31500000DD0009401F07CF8FF216846FFF7E3FB08B9B1
S31500000DE040B010BDC2B2531EDBB20120FC2B04D9A9
S31500000DF00128F5D0FFF7E8FBF2E744F20020C2F243
S31500000E0000006946C483FFF7A3FF83070006800E30
S31500000E10002BEDD10028EBD1ECE7C04610B5FFF76B
S31500000E20DBFBFFF733FBFFF739FBFFF733FBFFF77E
S31500000E3071FB30BFF7E7C04610B538B94CF2000376
S31500000E4090220121C4F27E03995410BD0228FCD1E0
S31500000E5042F2182144F22420C0F20001C2F200003E
S31500000E6000F072FAF1E7C04610B5FFF7D7FF002091
S31500000E7010BDC046F0B5C64600B50500806A84B010
S31500000E808C4690466C46D8B12300060086CE86C3B3
S31500000E9036681E60EB691B780360634683604346D1
S31500000EA00371EB6AC3606B6A9847AB6A23B107CCE0
S31500000EB007C31A002368136004B080BCB846F0BDAF
S31500000EC02000E7E730B5C069837B03B930BDEFF397
S31500000ED01081012383F3108844F29023C2F20003A9
S31500000EE01A6832B940F60054C4F20404E270403283
S31500000EF0E2701A6801321A6081F31088FF22058AAF
S31500000F0040F60004290A15400A01C17B5219481E01
S31500000F10814143F6FE70C4F2040492001559CFF6DF
S31500000F20FE7028400143042001431151EFF3108263
S31500000F30012181F31088196811B119680139196006
S31500000F401B6833B940F60051C4F20401CB708033FC
S31500000F50CB7082F31088B9E710B5EFF30384103C29
S31500000F6064B2200000F0BAFD44F29423A400C2F259
S31500000F700003E058C3691B6913B1036913B110BDBF
S31500000F80036983B97F23026A91780B4004210B43DE
S31500000F9093700023C360436A002BF0D080220021A7
S31500000FA0FFF768FFEBE7032382781340022B0ED08E
S31500000FB0C368026A1B78D370C16882788C4603695D
S31500000FC09207920F9B1A62440361C260D6E74FF6FE
S31500000FD00062C3681B881343026AD381ECE7C046EC
S31500000FE010B582B0EFF30384103C64B2200000F029
S31500000FF075FD44F29423A400C2F20003E4580323CF
S31500001000A2781340022B0DD0236A5979A369C9B27D
S31500001010019183B9636A1BB104222000FFF72AFFFE
S3150000102002B010BD40F2FF11236A1B8A1940A36962
S315000010300191002BEED09207920F606901A900F092
S315000010403DFFA37862699B079B0FD2186261A26974
S31500001050D31AA361002BE3D1636A002BE0D00122EF
S3150000106000212000FFF706FFDAE7C04670B5EFF370
S31500001070038444F29423103C64B2C2F20003A2003B
S31500001080D5587B232A6A91780B409370E869FFF75D
S3150000109019FF6B6A23B1022200212800FFF7EAFE3E
S315000010A0200000F01BFD70BDF8B5EFF3038444F299
S315000010B09423103C64B2C2F20003A200D558032365
S315000010C0AA781340022B1FD02B6A5F79FFB238260D
S315000010D01A791640D20602D51A7FD20711D53821C1
S315000010E01A798A431A71E869FFF7ECFE6B6A23B135
S315000010F0320039002800FFF7BDFE200000F0EEFCAC
S31500001100F8BD40221643EAE740F2FF172B6A1A8A17
S315000011101740DCE70023036000207047FF2010B56E
S3150000112040F600040B0A084019010918C4F2040429
S3150000113089000B5900209B07DB0F137010BDC046BA
S315000011400023C4F204039C46090A490161444B6822
S31500001150002013807047C0460020C4F20400844675
S315000011601800090A904300041340490103436144EF
S3150000117000208B607047C046FF2001230840834053
S3150000118052B91B040022C4F204029446090A49011A
S31500001190614400208B6070474FF6FF721340F1E701
S315000011A00020C4F204008446180010B5090A49015B
S315000011B061440C6810402043934398430860002024
S315000011C010BDC0460023C4F204039C46090A490127
S315000011D061444B6800201B0C138070470020C4F24A
S315000011E0040084460B0A5B0163445868FF231940D8
S315000011F0FE3B8B40000C99B203405B1A59424B41AF
S31500001200002013707047C0460020C4F204008446D4
S315000012101800090A9043000413404901034361443E
S315000012200020CB607047C0460023C4F204039C46EE
S31500001230FF23080A400119406044FE3B8B40C16809
S31500001240012A05D099431B040B43C3600020704755
S315000012501A0491430B43F8E7F0B5DE4657464E466F
S315000012604546E0B583B0EFF31082012383F310887F
S3150000127044F29023C2F2000301931B6833B940F68F
S315000012800051C4F20401CB704033CB7001990B6856
S3150000129001330B6082F310880388002293B3802306
S315000012A040F600045B029C46264B40F2FF09984636
S315000012B0C4F204040AE04B461F400B01DB199B00F5
S315000012C01E510132038892B293421BD94368D10062
S315000012D09A46634651448F880E68390A1E42EAD000
S315000012E04B461F400B01D91989000D598B464146C3
S315000012F00D4029005D4629514546354029005D4689
S315000013002951DBE7EFF31082012383F31088019B59
S315000013101B681BB101990B68013B0B60019B1B68A5
S3150000132033B940F60051C4F20401CB708033CB7060
S3150000133082F3108803B0F0BCBB46B246A946A0466D
S31500001340F0BDC046FFFFFEFF45F2542310B5C5F2BF
S315000013504F0303600800FFF77FFF002010BDC04663
S3150000136010B50800FFF778FF002010BDF0B5EFF3C9
S315000013701084012383F3108844F29023C2F2000301
S31500001380186830B940F60055C4F20405E8704030DC
S31500001390E87018680130186084F31088D00321D4EF
S315000013A0FF24080A0C40010140F600000919C4F2A6
S315000013B0040089000A50EFF31082012181F310889E
S315000013C0196811B11968013919601B6833B940F6FB
S315000013D00051C4F20401CB708033CB7082F31088C5
S315000013E00020F0BDFF2440F60005080A0C4001016C
S315000013F00819C4F2040580004759034E37401640C9
S3150000140047514651D0E7C046FFFFFEFF0368828A78
S3150000141000201A807047C046036810314900CB5A35
S31500001420002013807047C04670B5C56904000E00E1
S3150000143088B0A5B120222900684600F03FFD202291
S315000014403100280000F03AFD2800A3699847E069BA
S3150000145018B12022694600F031FD08B070BD0D00BC
S31500001460F2E7C046F0B557464E464546DE464CF2D4
S315000014700002E0B54F694160CB68C4F205028361A2
S315000014800B69944603620023C3610B8804005B0268
S31500001490634403604E698B78B2780D0085B05B03B8
S315000014A0002A00D186E040F240210B43717989077A
S315000014B002D540F200410B433179002900D17DE08D
S315000014C08022134343F600719BB2A382B278F07870
S315000014D0120211403F2202401143019170782A798D
S315000014E04001D2030243029232780392EFF3108A4C
S315000014F040F2010C8CF3108846F6FC70C4F204002E
S31500001500C26840F2100990462A8893464A465946D0
S31500001510521A9146624649468A4094464246614678
S315000015208A43C260C0688AF3108847F6FF50216874
S3150000153003400B806B469988236819826B461A898B
S315000015402368DA812368039A1A7373799A073CD45D
S315000015508A22062021688B542856002803DB2200A5
S31500001560697A00F0DBFA07202856002803DB220000
S31500001570A97A00F0D3FA07203856002803DB2200A8
S31500001580797A00F0CBFA08203856002803DB2200CF
S31500001590B97A00F0C3FA0023236144F243430020E2
S315000015A0C5F24123A36005B0F0BCBB46B246A946CE
S315000015B0A046F0BD40F240310B4377E73F2A00D00A
S315000015C080E748F2000213437CE7032221681343B5
S315000015D087328B540120012100F02CFA7379B7E78A
S315000015E030B5040089B0EFF3038344F29422103B34
S315000015F05BB2C2F200029B009D58EFF30383103BDF
S3150000160058B200F06BFA6B466A469C706B681B8892
S315000016101380002313722B6A0193AB691BB16946D1
S315000016202800FFF701FF09B030BDC046F8B55746A0
S315000016304E464546DE460400E0B5626808685269D3
S315000016407B4B8E6892464A68276818401A4033409A
S3150000165086B2BE80276896B2BE8227689EB23E8159
S315000016602768060CFE802668120CF28222681B0C84
S3150000167053814EF2000344F22032C4F201031F6A82
S315000016800723C2F2000212683E0E1E40B2403B40E3
S31500001690DA4040F2E833B2FBF3F241F288335A43C0
S315000016A044F24023C0F20F03B2FBF3F301330D0003
S315000016B0072B00D207236A682E68164380229205FC
S315000016C09046320041460A400E420CD040F2DE0CF3
S315000016D067462168DAB2CA554146AA680A40571ECB
S315000016E0BA410132FF328027FF053E420AD0DF268B
S315000016F02168DBB28B55AB683B4200D18AE040F2F1
S3150000170002231A43236892B25A82EB68002B00D157
S315000017108AE01A891600110544D5902621688A5355
S315000017205F8921680C368F539F89216802368F5353
S3150000173019689427894689B28C46664640F2960C0B
S315000017402168CE53494666460F0C3A4940F2920C40
S3150000175088460F4021688F5349464E0F032167463E
S315000017600E40216840F2980CCE555E686746B1B2CD
S315000017708946B3464E462168CE535E46310C8C46AA
S315000017804146664631408C4640F29A0867464646D0
S3150000179021688F535E4603219327760F0E402168FA
S315000017A0CE551E89B10526D490232668F2522A8A80
S315000017B02668103BF25253461B7973B11F232768E4
S315000017C03E889E43002831D000F01CFB1F36301A9D
S315000017D080B23880A38A1843A08244F24343C5F2FC
S315000017E04123E3602B6800202361F0BCBB46B24670
S315000017F0A946A046F8BDDF7C9E7C21683E43A6270D
S31500001800CE55A826DF8921688F531E8AAA23216810
S31500001810CE52C9E740F200231A43236892B25A8295
S31500001820EB68002B00D074E70022BDE72020CDE74F
S31500001830FFFFFF9FFF9FFFFFF8B5002706254368C0
S315000018408760C7605D5704005E69002D09DB2800CC
S3150000185000F052F944F29423AD00C2F20003EF50B7
S31500001860636807255D57002D09DB280000F044F961
S3150000187044F294230022C2F20003AD00EA50072589
S315000018807557002D09DB280000F036F944F2942341
S315000018900022C2F20003AD00EA5008257557002D5C
S315000018A009DB280000F028F944F294230022C2F252
S315000018B00003AD00EA5000232268138222681380D9
S315000018C0EFF31080013383F31088616846F6FC72EB
S315000018D00C881021091B8B40C4F20402D5682B43E7
S315000018E0D360D36880F310880020F8BD10B50020BF
S315000018F0FFF776FE10BDC0464EF20003262244F2E4
S31500001900BC01C4F20103985C1B6A8000C2F20001AC
S3150000191041585B015B0F44F22032D940C2F200020B
S31500001920116070474EF2000340F2FE323C49C4F2A9
S31500001930010330B599524CF20001002243F6C870FB
S31500001940C4F27E010A5444F2BC0046F60041C2F2DB
S315000019500000C0F2DC21016041F20021C0F27A01F0
S31500001960416048F20001C260026181602632995CE2
S315000019701A6A890041585201520F44F22034D1406C
S31500001980C2F200042160A52203219954053A9A5C0B
S31500001990CAB136229A5C1AB939315A5CD207FCD5DB
S315000019A04EF20002A021C4F20102535CDB06DD0FF9
S315000019B0002BFADB55544EF20002A021C4F20102BC
S315000019C0535CDB06FCD44EF2000200213623C4F23F
S315000019D00102D1543C31535CDB07FCD50121312394
S315000019E0D1544FF6C473C4F27E03197040F200134B
S315000019F000251362DA3BD554D55C136AAD00405915
S31500001A005B015B0FD84040F2FE3320600548D052A0
S31500001A104CF2000343F6C872C4F27E03995430BDFB
S31500001A2003A5FFFF00A5FFFF7047C0460138002849
S31500001A30FCD1704744F220324CF6002370B5414386
S31500001A40C2F200021468C3F69A330D00B3FBF4F435
S31500001A50080040F2E8320023002100F0F1F931B924
S31500001A60B0FBF4F0800808B1FFF7E0FF70BDA000FE
S31500001A70B5FBF0F040F2E8320023002100F0E0F977
S31500001A800029F0D001204042FFF7D0FFEEE7C04624
S31500001A90F8B546F2000340F2201244F25025002425
S31500001AA00127C4F200039E5A20329B5AC2F2000557
S31500001AB01E403300E340E0B21F4202D02B6803B160
S31500001AC0984701340435102CF3D146F2000340F256
S31500001AD03012C4F200039E52F8BDC04646F200031F
S31500001AE0C0308000C4F20003C25802490A40C25006
S31500001AF0C3587047FFFFFEFF1F2243094EF2001135
S31500001B0010401E3A82402033CEF200019B005A500C
S31500001B10BFF34F8FBFF36F8F7047C046F0B5C64611
S31500001B2090464EF20012FF240325CEF200029446A0
S31500001B30220040F200370540ED008901AA400C4022
S31500001B40AC4083089B0000B56344DE598100964390
S31500001B503443DC5144F294234246C2F200035A5005
S31500001B60030046F20002C033C4F200029B009958FB
S31500001B700C4C214099509B58BFF35F8F1F220123C5
S31500001B80024093404EF20012CEF20002944640F21A
S31500001B9080124009800060448350036080BCB846D0
S31500001BA0F0BDC046FFFFFEFF46F200000023C4F270
S31500001BB0000042F27422C0F200029A1812781AB19A
S31500001BC01900C03189000A500133202BF1D170472A
S31500001BD070B5EFF31081012383F3108844F21433B8
S31500001BE04000C2F200031A5A1AB11A5A013A92B2C6
S31500001BF01A521B5A83B94EF2000240F2FE3542F2E7
S31500001C00C824C4F20102565B054BC0F20004205AF8
S31500001C10334383439BB2535381F3108870BDC04650
S31500001C2000A5FFFF70B5EFF31081012383F3108841
S31500001C3044F214324000C2F20002135A83B94EF243
S31500001C40000442F2C82540F2FE36C4F20104C0F296
S31500001C500005A35B2D5A2B434AF200552B43A35391
S31500001C60135A01339BB2135281F3108870BDC046DC
S31500001C7044F21C3210B5C2F200020300106858B1DB
S31500001C80032103338B4344F23831C318C2F20001F7
S31500001C908B4207D8136010BD44F23830C2F2000000
S31500001CA01060EDE700F0FAF80C23036001204042D3
S31500001CB0F1E7C04600BE704710B500F003F8FFF725
S31500001CC0D3F8FEE7F0B54EF6005340F20005CEF22B
S31500001CD00003C0F2000583B09D600020FFF7ACF85A
S31500001CE0FFF720FE6B460027DC1D277001202378B6
S31500001CF0FFF798FFEFF31081012686F3108846F66A
S31500001D00FC73C4F204039A683B4802409A609A68DE
S31500001D1081F3108840F60001C4F204010A68D20774
S31500001D20D20F22700A68D207D20F22700A68D20731
S31500001D30D20F2270EFF3108186F310888022986804
S31500001D40520502439A609B6881F310880120FFF7D1
S31500001D503FFF0120FFF770F840F60053274AC4F210
S31500001D6000039F801A802A68254941F20000511815
S31500001D709960DA6046F2000240F22011C4F20002D5
S31500001D80505244F2343244F2D000C2F20002C2F29F
S31500001D9000009E800021121A00F099F844F200001B
S31500001DA044F2BC0242F2D421C2F20000C2F20002A6
S31500001DB0121AC0F2000100F081F844F2B40544F2B0
S31500001DC0B803C2F20005C2F200035B1B9E10002B93
S31500001DD005DD002408CD01349847A642FADCFFF75A
S31500001DE08BFD0220FFF728F8FFF7DEFE0020FFF745
S31500001DF01BFE03B0F0BDC046FFFFFFEF00A5FFFFCF
S31500001E0000FCFFFF1C2101231B04984201D3000C98
S31500001E1010391B0A984201D3000A08391B09984257
S31500001E2001D30009043902A2105C40187047C0466D
S31500001E30040302020101010100000000000000008D
S31500001E40F0B54FF6FF75CE46474699462B0015402E
S31500001E500E0029000340140C80B50700000C5943FE
S31500001E604543634360435B190C0CE4188C46A5425A
S31500001E7003D980235B0298464044230C61461B1815
S31500001E8020044FF6FF740C40494679437243C91843
S31500001E9000198918C0BCB946B046F0BD014B186898
S31500001EA07047C0465040002010B5034B010018682B
S31500001EB000F016F810BDC04650400020002310B5B3
S31500001EC09A4200D110BDCC5CC4540133F8E703003C
S31500001ED08218934200D1704719700133F9E7FFFF6A
S31500001EE070B5050079B10C1F2368002B00DAE418E1
S31500001EF0280000F0EBF81C4A13682BB963601460E5
S31500001F00280000F0EBF870BDA34208D921686018DC
S31500001F108342F3D118685B6841182160EEE71A0026
S31500001F205B680BB1A342FAD911685018A0420BD1D5
S31500001F3020680918501811608342E1D118685B685F
S31500001F40411811605360DBE7A04202D90C232B60D5
S31500001F50D6E721686018834203D118685B68411888
S31500001F60216063605460CBE72443002070B50E4EB9
S31500001F700D003168040011B900F098F830602900AE
S31500001F80200000F093F8431C0AD00323C51C9D4390
S31500001F90A84207D0291A200000F088F8431C01D176
S31500001FA001256D42280070BD28430020F7B50322A5
S31500001FB0CB1C9343083306001F000C2B32D20C2790
S31500001FC0B94231D8334D300000F080F82B681C0040
S31500001FD0002C2ED139003000FFF7C8FF0400431C47
S31500001FE01ED12C682500002D4AD123682900E3184C
S31500001FF03000019300F05AF8019B834243D12368D5
S315000020000337FF1A03239F4308370C2F00D20C27F0
S3150000201039003000FFF7AAFF431C34D02368DF19CC
S31500002020276013E0002BCBDA0C2300253360280051
S31500002030FEBD2268D11B20D40B2917D9E2192760CF
S31500002040A34211D12A6063681160536030002500F5
S3150000205000F044F807220B35231D9543EA1A9D42EA
S31500002060E5D05B1BA350E2E75A60ECE76268A34247
S3150000207001D12A60EAE75A60E8E723006468A7E727
S315000020802C006D68AFE70C233000336000F026F8B3
S31500002090CDE7C0462443002010B5034B0A000100DB
S315000020A0186800F023F810BD50400020002370B5DA
S315000020B0054D040008002B60FFF7DAFD431C02D132
S315000020C02B6803B1236070BD2C43002010B5024875
S315000020D000F03AF810BDC0463043002010B5024863
S315000020E000F033F810BDC04630430020F7B50700B6
S315000020F00E00140029B91100FFF758FF050028004B
S31500002100FEBD1AB9FFF7ECFE2500F8E700F01EF851
S315000021100190844203D835004308A342EFD321003F
S315000021203800FFF743FF05000028E8D0019B220096
S315000021309C4200D91A0031002800FFF7BFFE31008B
S315000021403800FFF7CDFEDAE7704770470B1F1B68B4
S31500002150181F002B01DA0B58C01870474275696CBE
S315000021607420776974682052656E657361732041C7
S315000021706476616E63656420466C657869626C6539
S3150000218020536F667477617265205061636B616777
S31500002190652076657273696F6E20352E332E30009A
S315000021A0352E332E3000000000000305F8B5C0467A
S315000021B0F8BC08BC9E467047F8B5C046F8BC08BCDB
S315000021C09E46704704080102D007D0077D007D00B7
S315000021D00101000024420020182200009422000081
S315000021E000000000000F00DF0002FF009505000060
S315000021F000000000F821000000013F3F000000DF62
S31500002200DFFFFFFF000400000000000000000000E8
S3150000221000000000000000180A0000002422000050
S3150000222000000000008000000F0000000000010414
S31500002230000100000000010401010000040000008C
S31500002240020100000000010008010000000001007A
S3150000225009010000040001000A010000000000005E
S31500002260000200000400000001020000000001005E
S3150000227000030000070000001E1C1E1A00000000DC
S315000022800000000000000000000000000000000048
S315000022900000000049130000151100006113000042
S315000022A06D130000DD110000291200001D11000051
S315000022B079110000A1110000C511000009120000EB
S315000022C04111000059110000010002000800100031
S309000022D00000000004
S315000022D4010000001D070000020000001D070000A9
S315000022E4030000001D070000040000001D07000095
S315000022F405000000F508000006000000F5080000CF
S315000023040F000000350A000010000000350A000026
S31500002314160000000D0C0000000000000000000084
S3150000232454400020000000000000000000000000EF
S315000023340000000000000000000000000000000093
S315000023440000000000000000000000000000000083
S315000023540000000000000000000000000000000073
S315000023640000000000000000000000000000000063
S315000023740000000000000000000000000000000053
S3110000238400000000690400003D04000099
S31501010018FFFFFFFFFFFFFFFFFFFFFFFFFFFFFFFFE0
S31101010028FFFFFFFFFFFFFFFFFFFFFFFFD0
S70500001CB925
